:100000000C942A000C9434000C9434000C943400AA
:100010000C9434000C9434000C9434000C94340090
:100020000C9434000C9434000C9434000C94340080
:100030000C9434000C9434000C9434000C94340070
:100040000C9434000C9434000C9434000C94340060
:100050000C94340011241FBECFE5D8E0DEBFCDBF25
:100060000E94FD000C9418010C940000089508955E
:10007000A09A0895A098A8980895A098A89A08957D
:10008000A89A0895A898089595B381E0892785BB1B
:10009000089583B3817090E0089508950895A19A1A
:1000A0000895A198A9980895A198A99A0895A99A40
:1000B0000895A998089595B382E0892785BB08958E
:1000C00083B38695817090E0089508950895A29A6B
:1000D0000895A298AA980895A298AA9A0895AA9A0B
:1000E0000895AA98089595B384E0892785BB08955B
:1000F00083B382FB882780F990E0089508950895DE
:10010000A39A0895A398AB980895A398AB9A0895DD
:10011000AB9A0895AB98089595B388E0892785BB7D
:10012000089583B383FB882780F990E008950895AC
:100130000895A49A0895A498AC980895A498AC9AA8
:100140000895AC9A0895AC98089595B380E18927F5
:1001500085BB089583B38295817090E008950895DA
:100160000895A59A0895A598AD980895A598AD9A73
:100170000895AD9A0895AD98089595B380E28927C2
:1001800085BB089583B385FB882780F990E00895A7
:1001900008950895A69A0895A698AE980895A698E9
:1001A000AE9A0895AE9A0895AE98089595B380E4F6
:1001B000892785BB089583B386FB882780F990E063
:1001C000089508950895A79A0895A798AF98089557
:1001D000A798AF9A0895AF9A0895AF98089585B3F8
:1001E000805885BB089583B3082E000C990B892F86
:1001F000881F8827881F90E00895CF93DF931F9270
:10020000CDB7DEB7CE0101960E943600CE01019631
:100210000E943800CE0101960E9444002FE788E337
:1002200091E0215080409040E1F700C00000F2CF03
:04023000F894FFCF70
:00000001FF
